{
  "contractName": "TheRealPutinNFT",
  "abi": [
    {
      "inputs": [
        {
          "internalType": "string",
          "name": "_name",
          "type": "string"
        },
        {
          "internalType": "string",
          "name": "_symbol",
          "type": "string"
        },
        {
          "internalType": "string",
          "name": "_initBaseURI",
          "type": "string"
        }
      ],
      "stateMutability": "nonpayable",
      "type": "constructor"
    },
    {
      "anonymous": false,
      "inputs": [
        {
          "indexed": true,
          "internalType": "address",
          "name": "owner",
          "type": "address"
        },
        {
          "indexed": true,
          "internalType": "address",
          "name": "approved",
          "type": "address"
        },
        {
          "indexed": true,
          "internalType": "uint256",
          "name": "tokenId",
          "type": "uint256"
        }
      ],
      "name": "Approval",
      "type": "event"
    },
    {
      "anonymous": false,
      "inputs": [
        {
          "indexed": true,
          "internalType": "address",
          "name": "owner",
          "type": "address"
        },
        {
          "indexed": true,
          "internalType": "address",
          "name": "operator",
          "type": "address"
        },
        {
          "indexed": false,
          "internalType": "bool",
          "name": "approved",
          "type": "bool"
        }
      ],
      "name": "ApprovalForAll",
      "type": "event"
    },
    {
      "anonymous": false,
      "inputs": [
        {
          "indexed": true,
          "internalType": "address",
          "name": "previousOwner",
          "type": "address"
        },
        {
          "indexed": true,
          "internalType": "address",
          "name": "newOwner",
          "type": "address"
        }
      ],
      "name": "OwnershipTransferred",
      "type": "event"
    },
    {
      "anonymous": false,
      "inputs": [
        {
          "indexed": true,
          "internalType": "address",
          "name": "from",
          "type": "address"
        },
        {
          "indexed": true,
          "internalType": "address",
          "name": "to",
          "type": "address"
        },
        {
          "indexed": true,
          "internalType": "uint256",
          "name": "tokenId",
          "type": "uint256"
        }
      ],
      "name": "Transfer",
      "type": "event"
    },
    {
      "inputs": [
        {
          "internalType": "address",
          "name": "to",
          "type": "address"
        },
        {
          "internalType": "uint256",
          "name": "tokenId",
          "type": "uint256"
        }
      ],
      "name": "approve",
      "outputs": [],
      "stateMutability": "nonpayable",
      "type": "function"
    },
    {
      "inputs": [
        {
          "internalType": "address",
          "name": "owner",
          "type": "address"
        }
      ],
      "name": "balanceOf",
      "outputs": [
        {
          "internalType": "uint256",
          "name": "",
          "type": "uint256"
        }
      ],
      "stateMutability": "view",
      "type": "function",
      "constant": true
    },
    {
      "inputs": [],
      "name": "baseExtension",
      "outputs": [
        {
          "internalType": "string",
          "name": "",
          "type": "string"
        }
      ],
      "stateMutability": "view",
      "type": "function",
      "constant": true
    },
    {
      "inputs": [],
      "name": "baseURI",
      "outputs": [
        {
          "internalType": "string",
          "name": "",
          "type": "string"
        }
      ],
      "stateMutability": "view",
      "type": "function",
      "constant": true
    },
    {
      "inputs": [],
      "name": "cost",
      "outputs": [
        {
          "internalType": "uint256",
          "name": "",
          "type": "uint256"
        }
      ],
      "stateMutability": "view",
      "type": "function",
      "constant": true
    },
    {
      "inputs": [
        {
          "internalType": "uint256",
          "name": "tokenId",
          "type": "uint256"
        }
      ],
      "name": "getApproved",
      "outputs": [
        {
          "internalType": "address",
          "name": "",
          "type": "address"
        }
      ],
      "stateMutability": "view",
      "type": "function",
      "constant": true
    },
    {
      "inputs": [
        {
          "internalType": "address",
          "name": "owner",
          "type": "address"
        },
        {
          "internalType": "address",
          "name": "operator",
          "type": "address"
        }
      ],
      "name": "isApprovedForAll",
      "outputs": [
        {
          "internalType": "bool",
          "name": "",
          "type": "bool"
        }
      ],
      "stateMutability": "view",
      "type": "function",
      "constant": true
    },
    {
      "inputs": [],
      "name": "maxMintAmount",
      "outputs": [
        {
          "internalType": "uint256",
          "name": "",
          "type": "uint256"
        }
      ],
      "stateMutability": "view",
      "type": "function",
      "constant": true
    },
    {
      "inputs": [],
      "name": "maxSupply",
      "outputs": [
        {
          "internalType": "uint256",
          "name": "",
          "type": "uint256"
        }
      ],
      "stateMutability": "view",
      "type": "function",
      "constant": true
    },
    {
      "inputs": [],
      "name": "name",
      "outputs": [
        {
          "internalType": "string",
          "name": "",
          "type": "string"
        }
      ],
      "stateMutability": "view",
      "type": "function",
      "constant": true
    },
    {
      "inputs": [],
      "name": "owner",
      "outputs": [
        {
          "internalType": "address",
          "name": "",
          "type": "address"
        }
      ],
      "stateMutability": "view",
      "type": "function",
      "constant": true
    },
    {
      "inputs": [
        {
          "internalType": "uint256",
          "name": "tokenId",
          "type": "uint256"
        }
      ],
      "name": "ownerOf",
      "outputs": [
        {
          "internalType": "address",
          "name": "",
          "type": "address"
        }
      ],
      "stateMutability": "view",
      "type": "function",
      "constant": true
    },
    {
      "inputs": [],
      "name": "paused",
      "outputs": [
        {
          "internalType": "bool",
          "name": "",
          "type": "bool"
        }
      ],
      "stateMutability": "view",
      "type": "function",
      "constant": true
    },
    {
      "inputs": [],
      "name": "presaleCost",
      "outputs": [
        {
          "internalType": "uint256",
          "name": "",
          "type": "uint256"
        }
      ],
      "stateMutability": "view",
      "type": "function",
      "constant": true
    },
    {
      "inputs": [
        {
          "internalType": "address",
          "name": "",
          "type": "address"
        }
      ],
      "name": "presaleWallets",
      "outputs": [
        {
          "internalType": "bool",
          "name": "",
          "type": "bool"
        }
      ],
      "stateMutability": "view",
      "type": "function",
      "constant": true
    },
    {
      "inputs": [],
      "name": "renounceOwnership",
      "outputs": [],
      "stateMutability": "nonpayable",
      "type": "function"
    },
    {
      "inputs": [
        {
          "internalType": "address",
          "name": "from",
          "type": "address"
        },
        {
          "internalType": "address",
          "name": "to",
          "type": "address"
        },
        {
          "internalType": "uint256",
          "name": "tokenId",
          "type": "uint256"
        }
      ],
      "name": "safeTransferFrom",
      "outputs": [],
      "stateMutability": "nonpayable",
      "type": "function"
    },
    {
      "inputs": [
        {
          "internalType": "address",
          "name": "from",
          "type": "address"
        },
        {
          "internalType": "address",
          "name": "to",
          "type": "address"
        },
        {
          "internalType": "uint256",
          "name": "tokenId",
          "type": "uint256"
        },
        {
          "internalType": "bytes",
          "name": "_data",
          "type": "bytes"
        }
      ],
      "name": "safeTransferFrom",
      "outputs": [],
      "stateMutability": "nonpayable",
      "type": "function"
    },
    {
      "inputs": [
        {
          "internalType": "address",
          "name": "operator",
          "type": "address"
        },
        {
          "internalType": "bool",
          "name": "approved",
          "type": "bool"
        }
      ],
      "name": "setApprovalForAll",
      "outputs": [],
      "stateMutability": "nonpayable",
      "type": "function"
    },
    {
      "inputs": [
        {
          "internalType": "bytes4",
          "name": "interfaceId",
          "type": "bytes4"
        }
      ],
      "name": "supportsInterface",
      "outputs": [
        {
          "internalType": "bool",
          "name": "",
          "type": "bool"
        }
      ],
      "stateMutability": "view",
      "type": "function",
      "constant": true
    },
    {
      "inputs": [],
      "name": "symbol",
      "outputs": [
        {
          "internalType": "string",
          "name": "",
          "type": "string"
        }
      ],
      "stateMutability": "view",
      "type": "function",
      "constant": true
    },
    {
      "inputs": [
        {
          "internalType": "uint256",
          "name": "index",
          "type": "uint256"
        }
      ],
      "name": "tokenByIndex",
      "outputs": [
        {
          "internalType": "uint256",
          "name": "",
          "type": "uint256"
        }
      ],
      "stateMutability": "view",
      "type": "function",
      "constant": true
    },
    {
      "inputs": [
        {
          "internalType": "address",
          "name": "owner",
          "type": "address"
        },
        {
          "internalType": "uint256",
          "name": "index",
          "type": "uint256"
        }
      ],
      "name": "tokenOfOwnerByIndex",
      "outputs": [
        {
          "internalType": "uint256",
          "name": "",
          "type": "uint256"
        }
      ],
      "stateMutability": "view",
      "type": "function",
      "constant": true
    },
    {
      "inputs": [],
      "name": "totalSupply",
      "outputs": [
        {
          "internalType": "uint256",
          "name": "",
          "type": "uint256"
        }
      ],
      "stateMutability": "view",
      "type": "function",
      "constant": true
    },
    {
      "inputs": [
        {
          "internalType": "address",
          "name": "from",
          "type": "address"
        },
        {
          "internalType": "address",
          "name": "to",
          "type": "address"
        },
        {
          "internalType": "uint256",
          "name": "tokenId",
          "type": "uint256"
        }
      ],
      "name": "transferFrom",
      "outputs": [],
      "stateMutability": "nonpayable",
      "type": "function"
    },
    {
      "inputs": [
        {
          "internalType": "address",
          "name": "newOwner",
          "type": "address"
        }
      ],
      "name": "transferOwnership",
      "outputs": [],
      "stateMutability": "nonpayable",
      "type": "function"
    },
    {
      "inputs": [
        {
          "internalType": "address",
          "name": "",
          "type": "address"
        }
      ],
      "name": "whitelisted",
      "outputs": [
        {
          "internalType": "bool",
          "name": "",
          "type": "bool"
        }
      ],
      "stateMutability": "view",
      "type": "function",
      "constant": true
    },
    {
      "inputs": [
        {
          "internalType": "address",
          "name": "_to",
          "type": "address"
        },
        {
          "internalType": "uint256",
          "name": "_mintAmount",
          "type": "uint256"
        }
      ],
      "name": "mint",
      "outputs": [],
      "stateMutability": "payable",
      "type": "function",
      "payable": true
    },
    {
      "inputs": [
        {
          "internalType": "address",
          "name": "_owner",
          "type": "address"
        }
      ],
      "name": "walletOfOwner",
      "outputs": [
        {
          "internalType": "uint256[]",
          "name": "",
          "type": "uint256[]"
        }
      ],
      "stateMutability": "view",
      "type": "function",
      "constant": true
    },
    {
      "inputs": [
        {
          "internalType": "uint256",
          "name": "tokenId",
          "type": "uint256"
        }
      ],
      "name": "tokenURI",
      "outputs": [
        {
          "internalType": "string",
          "name": "",
          "type": "string"
        }
      ],
      "stateMutability": "view",
      "type": "function",
      "constant": true
    },
    {
      "inputs": [
        {
          "internalType": "uint256",
          "name": "_newCost",
          "type": "uint256"
        }
      ],
      "name": "setCost",
      "outputs": [],
      "stateMutability": "nonpayable",
      "type": "function"
    },
    {
      "inputs": [
        {
          "internalType": "uint256",
          "name": "_newCost",
          "type": "uint256"
        }
      ],
      "name": "setPresaleCost",
      "outputs": [],
      "stateMutability": "nonpayable",
      "type": "function"
    },
    {
      "inputs": [
        {
          "internalType": "uint256",
          "name": "_newmaxMintAmount",
          "type": "uint256"
        }
      ],
      "name": "setmaxMintAmount",
      "outputs": [],
      "stateMutability": "nonpayable",
      "type": "function"
    },
    {
      "inputs": [
        {
          "internalType": "string",
          "name": "_newBaseURI",
          "type": "string"
        }
      ],
      "name": "setBaseURI",
      "outputs": [],
      "stateMutability": "nonpayable",
      "type": "function"
    },
    {
      "inputs": [
        {
          "internalType": "string",
          "name": "_newBaseExtension",
          "type": "string"
        }
      ],
      "name": "setBaseExtension",
      "outputs": [],
      "stateMutability": "nonpayable",
      "type": "function"
    },
    {
      "inputs": [
        {
          "internalType": "bool",
          "name": "_state",
          "type": "bool"
        }
      ],
      "name": "pause",
      "outputs": [],
      "stateMutability": "nonpayable",
      "type": "function"
    },
    {
      "inputs": [
        {
          "internalType": "address",
          "name": "_user",
          "type": "address"
        }
      ],
      "name": "whitelistUser",
      "outputs": [],
      "stateMutability": "nonpayable",
      "type": "function"
    },
    {
      "inputs": [
        {
          "internalType": "address",
          "name": "_user",
          "type": "address"
        }
      ],
      "name": "removeWhitelistUser",
      "outputs": [],
      "stateMutability": "nonpayable",
      "type": "function"
    },
    {
      "inputs": [
        {
          "internalType": "address",
          "name": "_user",
          "type": "address"
        }
      ],
      "name": "addPresaleUser",
      "outputs": [],
      "stateMutability": "nonpayable",
      "type": "function"
    },
    {
      "inputs": [
        {
          "internalType": "address[100]",
          "name": "_users",
          "type": "address[100]"
        }
      ],
      "name": "add100PresaleUsers",
      "outputs": [],
      "stateMutability": "nonpayable",
      "type": "function"
    },
    {
      "inputs": [
        {
          "internalType": "address",
          "name": "_user",
          "type": "address"
        }
      ],
      "name": "removePresaleUser",
      "outputs": [],
      "stateMutability": "nonpayable",
      "type": "function"
    },
    {
      "inputs": [],
      "name": "withdraw",
      "outputs": [],
      "stateMutability": "payable",
      "type": "function",
      "payable": true
    }
  ],
  "bytecode": "0x60c06040526005608081905264173539b7b760d91b60a09081526200002891600c9190620008d7565b5066b1a2bc2ec50000600d819055600e556101f4600f5560146010556011805460ff191690553480156200005b57600080fd5b5060405162003323380380620033238339810160408190526200007e9162000a53565b82518390839062000097906000906020850190620008d7565b508051620000ad906001906020840190620008d7565b505050620000ca620000c4620000eb60201b60201c565b620000ef565b620000d58162000141565b620000e2336014620001ba565b50505062000cb3565b3390565b600a80546001600160a01b038381166001600160a01b0319831681179093556040519116919082907f8be0079c531659141344cd1fd0a4f28419497f9722a3daafe3b4186f6b6457e090600090a35050565b600a546001600160a01b03163314620001a15760405162461bcd60e51b815260206004820181905260248201527f4f776e61626c653a2063616c6c6572206973206e6f7420746865206f776e657260448201526064015b60405180910390fd5b8051620001b690600b906020840190620008d7565b5050565b6000620001c660085490565b60115490915060ff1615620001da57600080fd5b60008211620001e857600080fd5b601054821115620001f857600080fd5b600f5462000207838362000afa565b11156200021357600080fd5b600a546001600160a01b03163314620002a0573360009081526012602052604090205460ff161515600114620002a0573360009081526013602052604090205460ff161515600114620002835781600d5462000270919062000b15565b3410156200027d57600080fd5b620002a0565b81600e5462000293919062000b15565b341015620002a057600080fd5b60015b828111620002d757620002c284620002bc838562000afa565b620002dd565b80620002ce8162000b37565b915050620002a3565b50505050565b620001b6828260405180602001604052806000815250620002ff60201b60201c565b6200030b83836200033e565b6200031a600084848462000494565b620003395760405162461bcd60e51b8152600401620001989062000b55565b505050565b6001600160a01b038216620003965760405162461bcd60e51b815260206004820181905260248201527f4552433732313a206d696e7420746f20746865207a65726f2061646472657373604482015260640162000198565b6000818152600260205260409020546001600160a01b031615620003fd5760405162461bcd60e51b815260206004820152601c60248201527f4552433732313a20746f6b656e20616c7265616479206d696e74656400000000604482015260640162000198565b6200040b60008383620005b4565b6001600160a01b03821660009081526003602052604081208054600192906200043690849062000afa565b909155505060008181526002602052604080822080546001600160a01b0319166001600160a01b03861690811790915590518392907fddf252ad1be2c89b69c2b068fc378daa952ba7f163c4a11628f55a4df523b3ef908290a45050565b6000620004b5846001600160a01b03166200069060201b620014d01760201c565b15620005a857604051630a85bd0160e11b81526001600160a01b0385169063150b7a0290620004ef90339089908890889060040162000ba7565b6020604051808303816000875af19250505080156200052d575060408051601f3d908101601f191682019092526200052a9181019062000bfd565b60015b6200058d573d8080156200055e576040519150601f19603f3d011682016040523d82523d6000602084013e62000563565b606091505b508051620005855760405162461bcd60e51b8152600401620001989062000b55565b805181602001fd5b6001600160e01b031916630a85bd0160e11b149050620005ac565b5060015b949350505050565b620005cc8383836200033960201b620009991760201c565b6001600160a01b0383166200062a576200062481600880546000838152600960205260408120829055600182018355919091527ff3f7a9fe364faab93b216da50a3214154f22a0a2b415b23a84c8169e8b636ee30155565b62000650565b816001600160a01b0316836001600160a01b031614620006505762000650838262000696565b6001600160a01b0382166200066a57620003398162000743565b826001600160a01b0316826001600160a01b0316146200033957620003398282620007fd565b3b151590565b60006001620006b0846200084e60201b6200100a1760201c565b620006bc919062000c30565b60008381526007602052604090205490915080821462000710576001600160a01b03841660009081526006602090815260408083208584528252808320548484528184208190558352600790915290208190555b5060009182526007602090815260408084208490556001600160a01b039094168352600681528383209183525290812055565b600854600090620007579060019062000c30565b6000838152600960205260408120546008805493945090928490811062000782576200078262000c4a565b906000526020600020015490508060088381548110620007a657620007a662000c4a565b6000918252602080832090910192909255828152600990915260408082208490558582528120556008805480620007e157620007e162000c60565b6001900381819060005260206000200160009055905550505050565b600062000815836200084e60201b6200100a1760201c565b6001600160a01b039093166000908152600660209081526040808320868452825280832085905593825260079052919091209190915550565b60006001600160a01b038216620008bb5760405162461bcd60e51b815260206004820152602a60248201527f4552433732313a2062616c616e636520717565727920666f7220746865207a65604482015269726f206164647265737360b01b606482015260840162000198565b506001600160a01b031660009081526003602052604090205490565b828054620008e59062000c76565b90600052602060002090601f01602090048101928262000909576000855562000954565b82601f106200092457805160ff191683800117855562000954565b8280016001018555821562000954579182015b828111156200095457825182559160200191906001019062000937565b506200096292915062000966565b5090565b5b8082111562000962576000815560010162000967565b634e487b7160e01b600052604160045260246000fd5b60005b83811015620009b057818101518382015260200162000996565b83811115620002d75750506000910152565b600082601f830112620009d457600080fd5b81516001600160401b0380821115620009f157620009f16200097d565b604051601f8301601f19908116603f0116810190828211818310171562000a1c5762000a1c6200097d565b8160405283815286602085880101111562000a3657600080fd5b62000a4984602083016020890162000993565b9695505050505050565b60008060006060848603121562000a6957600080fd5b83516001600160401b038082111562000a8157600080fd5b62000a8f87838801620009c2565b9450602086015191508082111562000aa657600080fd5b62000ab487838801620009c2565b9350604086015191508082111562000acb57600080fd5b5062000ada86828701620009c2565b9150509250925092565b634e487b7160e01b600052601160045260246000fd5b6000821982111562000b105762000b1062000ae4565b500190565b600081600019048311821515161562000b325762000b3262000ae4565b500290565b600060001982141562000b4e5762000b4e62000ae4565b5060010190565b60208082526032908201527f4552433732313a207472616e7366657220746f206e6f6e20455243373231526560408201527131b2b4bb32b91034b6b83632b6b2b73a32b960711b606082015260800190565b600060018060a01b03808716835280861660208401525083604083015260806060830152825180608084015262000be68160a085016020870162000993565b601f01601f19169190910160a00195945050505050565b60006020828403121562000c1057600080fd5b81516001600160e01b03198116811462000c2957600080fd5b9392505050565b60008282101562000c455762000c4562000ae4565b500390565b634e487b7160e01b600052603260045260246000fd5b634e487b7160e01b600052603160045260246000fd5b600181811c9082168062000c8b57607f821691505b6020821081141562000cad57634e487b7160e01b600052602260045260246000fd5b50919050565b6126608062000cc36000396000f3fe6080604052600436106101e15760003560e01c806301ffc9a7146101e657806302329a291461021b57806306fdde031461023d578063081812fc1461025f578063095ea7b31461029757806313faede6146102b757806318160ddd146102db578063239c70ae146102f057806323b872dd146103065780632a23d07d146103265780632f745c591461033c57806330b2264e1461035c57806330cc7ae01461038c5780633ccfd60b146103ac57806340c10f19146103b457806342842e0e146103c7578063438b6300146103e757806344a0d68a146104145780634a4c560d146104345780634f6ccce714610454578063546857c71461047457806355f804b3146104945780635c975abb146104b45780636352211e146104ce5780636c0360eb146104ee57806370a0823114610503578063715018a6146105235780637f00c7a6146105385780638da5cb5b146105585780638fdcf9421461056d57806395d89b411461058d578063a22cb465146105a2578063b2f3e85e146105c2578063b88d4fde146105e2578063c668286214610602578063c87b56dd14610617578063d5abeb0114610637578063d936547e1461064d578063da3ef23f1461067d578063e985e9c51461069d578063ed931e17146106bd578063f2fde38b146106dd575b600080fd5b3480156101f257600080fd5b50610206610201366004611f13565b6106fd565b60405190151581526020015b60405180910390f35b34801561022757600080fd5b5061023b610236366004611f45565b610728565b005b34801561024957600080fd5b50610252610773565b6040516102129190611fb8565b34801561026b57600080fd5b5061027f61027a366004611fcb565b610805565b6040516001600160a01b039091168152602001610212565b3480156102a357600080fd5b5061023b6102b2366004611ffb565b61088d565b3480156102c357600080fd5b506102cd600d5481565b604051908152602001610212565b3480156102e757600080fd5b506008546102cd565b3480156102fc57600080fd5b506102cd60105481565b34801561031257600080fd5b5061023b610321366004612025565b61099e565b34801561033257600080fd5b506102cd600e5481565b34801561034857600080fd5b506102cd610357366004611ffb565b6109cf565b34801561036857600080fd5b50610206610377366004612061565b60136020526000908152604090205460ff1681565b34801561039857600080fd5b5061023b6103a7366004612061565b610a65565b61023b610ab5565b61023b6103c2366004611ffb565b610b3c565b3480156103d357600080fd5b5061023b6103e2366004612025565b610c54565b3480156103f357600080fd5b50610407610402366004612061565b610c6f565b604051610212919061207c565b34801561042057600080fd5b5061023b61042f366004611fcb565b610d10565b34801561044057600080fd5b5061023b61044f366004612061565b610d44565b34801561046057600080fd5b506102cd61046f366004611fcb565b610d97565b34801561048057600080fd5b5061023b61048f3660046120d6565b610e2a565b3480156104a057600080fd5b5061023b6104af3660046121d0565b610ec3565b3480156104c057600080fd5b506011546102069060ff1681565b3480156104da57600080fd5b5061027f6104e9366004611fcb565b610f05565b3480156104fa57600080fd5b50610252610f7c565b34801561050f57600080fd5b506102cd61051e366004612061565b61100a565b34801561052f57600080fd5b5061023b611091565b34801561054457600080fd5b5061023b610553366004611fcb565b6110cc565b34801561056457600080fd5b5061027f611100565b34801561057957600080fd5b5061023b610588366004611fcb565b61110f565b34801561059957600080fd5b50610252611143565b3480156105ae57600080fd5b5061023b6105bd366004612218565b611152565b3480156105ce57600080fd5b5061023b6105dd366004612061565b611213565b3480156105ee57600080fd5b5061023b6105fd36600461224b565b611266565b34801561060e57600080fd5b50610252611298565b34801561062357600080fd5b50610252610632366004611fcb565b6112a5565b34801561064357600080fd5b506102cd600f5481565b34801561065957600080fd5b50610206610668366004612061565b60126020526000908152604090205460ff1681565b34801561068957600080fd5b5061023b6106983660046121d0565b611373565b3480156106a957600080fd5b506102066106b83660046122c6565b6113b5565b3480156106c957600080fd5b5061023b6106d8366004612061565b6113e3565b3480156106e957600080fd5b5061023b6106f8366004612061565b611433565b60006001600160e01b0319821663780e9d6360e01b14806107225750610722826114d6565b92915050565b33610731611100565b6001600160a01b0316146107605760405162461bcd60e51b8152600401610757906122f0565b60405180910390fd5b6011805460ff1916911515919091179055565b60606000805461078290612325565b80601f01602080910402602001604051908101604052809291908181526020018280546107ae90612325565b80156107fb5780601f106107d0576101008083540402835291602001916107fb565b820191906000526020600020905b8154815290600101906020018083116107de57829003601f168201915b5050505050905090565b600061081082611526565b6108715760405162461bcd60e51b815260206004820152602c60248201527f4552433732313a20617070726f76656420717565727920666f72206e6f6e657860448201526b34b9ba32b73a103a37b5b2b760a11b6064820152608401610757565b506000908152600460205260409020546001600160a01b031690565b600061089882610f05565b9050806001600160a01b0316836001600160a01b031614156109065760405162461bcd60e51b815260206004820152602160248201527f4552433732313a20617070726f76616c20746f2063757272656e74206f776e656044820152603960f91b6064820152608401610757565b336001600160a01b0382161480610922575061092281336113b5565b61098f5760405162461bcd60e51b815260206004820152603860248201527f4552433732313a20617070726f76652063616c6c6572206973206e6f74206f776044820152771b995c881b9bdc88185c1c1c9bdd995908199bdc88185b1b60421b6064820152608401610757565b6109998383611543565b505050565b6109a833826115b1565b6109c45760405162461bcd60e51b815260040161075790612360565b61099983838361167b565b60006109da8361100a565b8210610a3c5760405162461bcd60e51b815260206004820152602b60248201527f455243373231456e756d657261626c653a206f776e657220696e646578206f7560448201526a74206f6620626f756e647360a81b6064820152608401610757565b506001600160a01b03919091166000908152600660209081526040808320938352929052205490565b33610a6e611100565b6001600160a01b031614610a945760405162461bcd60e51b8152600401610757906122f0565b6001600160a01b03166000908152601260205260409020805460ff19169055565b33610abe611100565b6001600160a01b031614610ae45760405162461bcd60e51b8152600401610757906122f0565b604051600090339047908381818185875af1925050503d8060008114610b26576040519150601f19603f3d011682016040523d82523d6000602084013e610b2b565b606091505b5050905080610b3957600080fd5b50565b6000610b4760085490565b60115490915060ff1615610b5a57600080fd5b60008211610b6757600080fd5b601054821115610b7657600080fd5b600f54610b8383836123c7565b1115610b8e57600080fd5b610b96611100565b6001600160a01b0316336001600160a01b031614610c1f573360009081526012602052604090205460ff161515600114610c1f573360009081526013602052604090205460ff161515600114610c055781600d54610bf491906123df565b341015610c0057600080fd5b610c1f565b81600e54610c1391906123df565b341015610c1f57600080fd5b60015b828111610c4e57610c3c84610c3783856123c7565b611814565b80610c46816123fe565b915050610c22565b50505050565b61099983838360405180602001604052806000815250611266565b60606000610c7c8361100a565b90506000816001600160401b03811115610c9857610c986120c0565b604051908082528060200260200182016040528015610cc1578160200160208202803683370190505b50905060005b82811015610d0857610cd985826109cf565b828281518110610ceb57610ceb612419565b602090810291909101015280610d00816123fe565b915050610cc7565b509392505050565b33610d19611100565b6001600160a01b031614610d3f5760405162461bcd60e51b8152600401610757906122f0565b600d55565b33610d4d611100565b6001600160a01b031614610d735760405162461bcd60e51b8152600401610757906122f0565b6001600160a01b03166000908152601260205260409020805460ff19166001179055565b6000610da260085490565b8210610e055760405162461bcd60e51b815260206004820152602c60248201527f455243373231456e756d657261626c653a20676c6f62616c20696e646578206f60448201526b7574206f6620626f756e647360a01b6064820152608401610757565b60088281548110610e1857610e18612419565b90600052602060002001549050919050565b33610e33611100565b6001600160a01b031614610e595760405162461bcd60e51b8152600401610757906122f0565b60005b6002811015610ebf57600160136000848460648110610e7d57610e7d612419565b602090810291909101516001600160a01b03168252810191909152604001600020805460ff191691151591909117905580610eb7816123fe565b915050610e5c565b5050565b33610ecc611100565b6001600160a01b031614610ef25760405162461bcd60e51b8152600401610757906122f0565b8051610ebf90600b906020840190611e64565b6000818152600260205260408120546001600160a01b0316806107225760405162461bcd60e51b815260206004820152602960248201527f4552433732313a206f776e657220717565727920666f72206e6f6e657869737460448201526832b73a103a37b5b2b760b91b6064820152608401610757565b600b8054610f8990612325565b80601f0160208091040260200160405190810160405280929190818152602001828054610fb590612325565b80156110025780601f10610fd757610100808354040283529160200191611002565b820191906000526020600020905b815481529060010190602001808311610fe557829003601f168201915b505050505081565b60006001600160a01b0382166110755760405162461bcd60e51b815260206004820152602a60248201527f4552433732313a2062616c616e636520717565727920666f7220746865207a65604482015269726f206164647265737360b01b6064820152608401610757565b506001600160a01b031660009081526003602052604090205490565b3361109a611100565b6001600160a01b0316146110c05760405162461bcd60e51b8152600401610757906122f0565b6110ca600061182e565b565b336110d5611100565b6001600160a01b0316146110fb5760405162461bcd60e51b8152600401610757906122f0565b601055565b600a546001600160a01b031690565b33611118611100565b6001600160a01b03161461113e5760405162461bcd60e51b8152600401610757906122f0565b600e55565b60606001805461078290612325565b6001600160a01b0382163314156111a75760405162461bcd60e51b815260206004820152601960248201527822a9219b99189d1030b8383937bb32903a379031b0b63632b960391b6044820152606401610757565b3360008181526005602090815260408083206001600160a01b03871680855290835292819020805460ff191686151590811790915590519081529192917f17307eab39ab6107e8899845ad3d59bd9653f200f220920489ca2b5937696c31910160405180910390a35050565b3361121c611100565b6001600160a01b0316146112425760405162461bcd60e51b8152600401610757906122f0565b6001600160a01b03166000908152601360205260409020805460ff19166001179055565b61127033836115b1565b61128c5760405162461bcd60e51b815260040161075790612360565b610c4e84848484611880565b600c8054610f8990612325565b60606112b082611526565b6113145760405162461bcd60e51b815260206004820152602f60248201527f4552433732314d657461646174613a2055524920717565727920666f72206e6f60448201526e3732bc34b9ba32b73a103a37b5b2b760891b6064820152608401610757565b600061131e6118b3565b9050600081511161133e576040518060200160405280600081525061136c565b80611348846118c2565b600c60405160200161135c9392919061242f565b6040516020818303038152906040525b9392505050565b3361137c611100565b6001600160a01b0316146113a25760405162461bcd60e51b8152600401610757906122f0565b8051610ebf90600c906020840190611e64565b6001600160a01b03918216600090815260056020908152604080832093909416825291909152205460ff1690565b336113ec611100565b6001600160a01b0316146114125760405162461bcd60e51b8152600401610757906122f0565b6001600160a01b03166000908152601360205260409020805460ff19169055565b3361143c611100565b6001600160a01b0316146114625760405162461bcd60e51b8152600401610757906122f0565b6001600160a01b0381166114c75760405162461bcd60e51b815260206004820152602660248201527f4f776e61626c653a206e6577206f776e657220697320746865207a65726f206160448201526564647265737360d01b6064820152608401610757565b610b398161182e565b3b151590565b60006001600160e01b031982166380ac58cd60e01b148061150757506001600160e01b03198216635b5e139f60e01b145b8061072257506301ffc9a760e01b6001600160e01b0319831614610722565b6000908152600260205260409020546001600160a01b0316151590565b600081815260046020526040902080546001600160a01b0319166001600160a01b038416908117909155819061157882610f05565b6001600160a01b03167f8c5be1e5ebec7d5bd14f71427d1e84f3dd0314c0f7b2291e5b200ac8c7c3b92560405160405180910390a45050565b60006115bc82611526565b61161d5760405162461bcd60e51b815260206004820152602c60248201527f4552433732313a206f70657261746f7220717565727920666f72206e6f6e657860448201526b34b9ba32b73a103a37b5b2b760a11b6064820152608401610757565b600061162883610f05565b9050806001600160a01b0316846001600160a01b031614806116635750836001600160a01b031661165884610805565b6001600160a01b0316145b80611673575061167381856113b5565b949350505050565b826001600160a01b031661168e82610f05565b6001600160a01b0316146116f65760405162461bcd60e51b815260206004820152602960248201527f4552433732313a207472616e73666572206f6620746f6b656e2074686174206960448201526839903737ba1037bbb760b91b6064820152608401610757565b6001600160a01b0382166117585760405162461bcd60e51b8152602060048201526024808201527f4552433732313a207472616e7366657220746f20746865207a65726f206164646044820152637265737360e01b6064820152608401610757565b6117638383836119bf565b61176e600082611543565b6001600160a01b03831660009081526003602052604081208054600192906117979084906124f3565b90915550506001600160a01b03821660009081526003602052604081208054600192906117c59084906123c7565b909155505060008181526002602052604080822080546001600160a01b0319166001600160a01b03868116918217909255915184939187169160008051602061260b83398151915291a4505050565b610ebf828260405180602001604052806000815250611a77565b600a80546001600160a01b038381166001600160a01b0319831681179093556040519116919082907f8be0079c531659141344cd1fd0a4f28419497f9722a3daafe3b4186f6b6457e090600090a35050565b61188b84848461167b565b61189784848484611aaa565b610c4e5760405162461bcd60e51b81526004016107579061250a565b6060600b805461078290612325565b6060816118e65750506040805180820190915260018152600360fc1b602082015290565b8160005b811561191057806118fa816123fe565b91506119099050600a83612572565b91506118ea565b6000816001600160401b0381111561192a5761192a6120c0565b6040519080825280601f01601f191660200182016040528015611954576020820181803683370190505b5090505b8415611673576119696001836124f3565b9150611976600a86612586565b6119819060306123c7565b60f81b81838151811061199657611996612419565b60200101906001600160f81b031916908160001a9053506119b8600a86612572565b9450611958565b6001600160a01b038316611a1a57611a1581600880546000838152600960205260408120829055600182018355919091527ff3f7a9fe364faab93b216da50a3214154f22a0a2b415b23a84c8169e8b636ee30155565b611a3d565b816001600160a01b0316836001600160a01b031614611a3d57611a3d8382611ba8565b6001600160a01b038216611a545761099981611c45565b826001600160a01b0316826001600160a01b031614610999576109998282611cf4565b611a818383611d38565b611a8e6000848484611aaa565b6109995760405162461bcd60e51b81526004016107579061250a565b60006001600160a01b0384163b15611b9d57604051630a85bd0160e11b81526001600160a01b0385169063150b7a0290611aee90339089908890889060040161259a565b6020604051808303816000875af1925050508015611b29575060408051601f3d908101601f19168201909252611b26918101906125d7565b60015b611b83573d808015611b57576040519150601f19603f3d011682016040523d82523d6000602084013e611b5c565b606091505b508051611b7b5760405162461bcd60e51b81526004016107579061250a565b805181602001fd5b6001600160e01b031916630a85bd0160e11b149050611673565b506001949350505050565b60006001611bb58461100a565b611bbf91906124f3565b600083815260076020526040902054909150808214611c12576001600160a01b03841660009081526006602090815260408083208584528252808320548484528184208190558352600790915290208190555b5060009182526007602090815260408084208490556001600160a01b039094168352600681528383209183525290812055565b600854600090611c57906001906124f3565b60008381526009602052604081205460088054939450909284908110611c7f57611c7f612419565b906000526020600020015490508060088381548110611ca057611ca0612419565b6000918252602080832090910192909255828152600990915260408082208490558582528120556008805480611cd857611cd86125f4565b6001900381819060005260206000200160009055905550505050565b6000611cff8361100a565b6001600160a01b039093166000908152600660209081526040808320868452825280832085905593825260079052919091209190915550565b6001600160a01b038216611d8e5760405162461bcd60e51b815260206004820181905260248201527f4552433732313a206d696e7420746f20746865207a65726f20616464726573736044820152606401610757565b611d9781611526565b15611de35760405162461bcd60e51b815260206004820152601c60248201527b115490cdcc8c4e881d1bdad95b88185b1c9958591e481b5a5b9d195960221b6044820152606401610757565b611def600083836119bf565b6001600160a01b0382166000908152600360205260408120805460019290611e189084906123c7565b909155505060008181526002602052604080822080546001600160a01b0319166001600160a01b038616908117909155905183929060008051602061260b833981519152908290a45050565b828054611e7090612325565b90600052602060002090601f016020900481019282611e925760008555611ed8565b82601f10611eab57805160ff1916838001178555611ed8565b82800160010185558215611ed8579182015b82811115611ed8578251825591602001919060010190611ebd565b50611ee4929150611ee8565b5090565b5b80821115611ee45760008155600101611ee9565b6001600160e01b031981168114610b3957600080fd5b600060208284031215611f2557600080fd5b813561136c81611efd565b80358015158114611f4057600080fd5b919050565b600060208284031215611f5757600080fd5b61136c82611f30565b60005b83811015611f7b578181015183820152602001611f63565b83811115610c4e5750506000910152565b60008151808452611fa4816020860160208601611f60565b601f01601f19169290920160200192915050565b60208152600061136c6020830184611f8c565b600060208284031215611fdd57600080fd5b5035919050565b80356001600160a01b0381168114611f4057600080fd5b6000806040838503121561200e57600080fd5b61201783611fe4565b946020939093013593505050565b60008060006060848603121561203a57600080fd5b61204384611fe4565b925061205160208501611fe4565b9150604084013590509250925092565b60006020828403121561207357600080fd5b61136c82611fe4565b6020808252825182820181905260009190848201906040850190845b818110156120b457835183529284019291840191600101612098565b50909695505050505050565b634e487b7160e01b600052604160045260246000fd5b6000610c808083850312156120ea57600080fd5b83601f8401126120f957600080fd5b6040518181016001600160401b038111828210171561211a5761211a6120c0565b60405290830190808583111561212f57600080fd5b845b838110156121505761214281611fe4565b825260209182019101612131565b509095945050505050565b60006001600160401b0380841115612175576121756120c0565b604051601f8501601f19908116603f0116810190828211818310171561219d5761219d6120c0565b816040528093508581528686860111156121b657600080fd5b858560208301376000602087830101525050509392505050565b6000602082840312156121e257600080fd5b81356001600160401b038111156121f857600080fd5b8201601f8101841361220957600080fd5b6116738482356020840161215b565b6000806040838503121561222b57600080fd5b61223483611fe4565b915061224260208401611f30565b90509250929050565b6000806000806080858703121561226157600080fd5b61226a85611fe4565b935061227860208601611fe4565b92506040850135915060608501356001600160401b0381111561229a57600080fd5b8501601f810187136122ab57600080fd5b6122ba8782356020840161215b565b91505092959194509250565b600080604083850312156122d957600080fd5b6122e283611fe4565b915061224260208401611fe4565b6020808252818101527f4f776e61626c653a2063616c6c6572206973206e6f7420746865206f776e6572604082015260600190565b600181811c9082168061233957607f821691505b6020821081141561235a57634e487b7160e01b600052602260045260246000fd5b50919050565b60208082526031908201527f4552433732313a207472616e736665722063616c6c6572206973206e6f74206f6040820152701ddb995c881b9bdc88185c1c1c9bdd9959607a1b606082015260800190565b634e487b7160e01b600052601160045260246000fd5b600082198211156123da576123da6123b1565b500190565b60008160001904831182151516156123f9576123f96123b1565b500290565b6000600019821415612412576124126123b1565b5060010190565b634e487b7160e01b600052603260045260246000fd5b6000845160206124428285838a01611f60565b8551918401916124558184848a01611f60565b8554920191600090600181811c908083168061247257607f831692505b85831081141561249057634e487b7160e01b85526022600452602485fd5b8080156124a457600181146124b5576124e2565b60ff198516885283880195506124e2565b60008b81526020902060005b858110156124da5781548a8201529084019088016124c1565b505083880195505b50939b9a5050505050505050505050565b600082821015612505576125056123b1565b500390565b60208082526032908201527f4552433732313a207472616e7366657220746f206e6f6e20455243373231526560408201527131b2b4bb32b91034b6b83632b6b2b73a32b960711b606082015260800190565b634e487b7160e01b600052601260045260246000fd5b6000826125815761258161255c565b500490565b6000826125955761259561255c565b500690565b6001600160a01b03858116825284166020820152604081018390526080606082018190526000906125cd90830184611f8c565b9695505050505050565b6000602082840312156125e957600080fd5b815161136c81611efd565b634e487b7160e01b600052603160045260246000fdfeddf252ad1be2c89b69c2b068fc378daa952ba7f163c4a11628f55a4df523b3efa2646970667358221220106a0805bc9cd15aeca77c0a0d2a6f249a1e5736d7760b722a76b76b5673b53f64736f6c634300080c0033",
  "immutableReferences": {},
  "source": "//SPDX-License-Identifier: MIT\n\npragma solidity ^0.8.7;\n\nimport \"./token/ERC721/extensions/ERC721Enumerable.sol\";\nimport \"./access/Ownable.sol\";\n\ncontract TheRealPutinNFT is ERC721Enumerable, Ownable {\n    using Strings for uint256;\n\n    string public baseURI;\n    string public baseExtension = \".json\";\n    uint256 public cost = 0.05 ether;\n    uint256 public presaleCost = 0.05 ether;\n    uint256 public maxSupply = 500;\n    uint256 public maxMintAmount = 20;\n    bool public paused = false;\n    mapping(address => bool) public whitelisted;\n    mapping(address => bool) public presaleWallets;\n\n    constructor(\n        string memory _name,\n        string memory _symbol,\n        string memory _initBaseURI\n    ) ERC721(_name, _symbol) {\n        setBaseURI(_initBaseURI);\n        mint(msg.sender, 20);\n    }\n\n    // internal\n    function _baseURI() internal view virtual override returns (string memory) {\n        return baseURI;\n    }\n\n    // public\n    function mint(address _to, uint256 _mintAmount) public payable {\n        uint256 supply = totalSupply();\n        require(!paused);\n        require(_mintAmount > 0);\n        require(_mintAmount <= maxMintAmount);\n        require(supply + _mintAmount <= maxSupply);\n\n        if (msg.sender != owner()) {\n            if (whitelisted[msg.sender] != true) {\n                if (presaleWallets[msg.sender] != true) {\n                    //general public\n                    require(msg.value >= cost * _mintAmount);\n                } else {\n                    //presale\n                    require(msg.value >= presaleCost * _mintAmount);\n                }\n            }\n        }\n\n        for (uint256 i = 1; i <= _mintAmount; i++) {\n            _safeMint(_to, supply + i);\n        }\n    }\n\n    function walletOfOwner(address _owner)\n        public\n        view\n        returns (uint256[] memory)\n    {\n        uint256 ownerTokenCount = balanceOf(_owner);\n        uint256[] memory tokenIds = new uint256[](ownerTokenCount);\n        for (uint256 i; i < ownerTokenCount; i++) {\n            tokenIds[i] = tokenOfOwnerByIndex(_owner, i);\n        }\n        return tokenIds;\n    }\n\n    function tokenURI(uint256 tokenId)\n        public\n        view\n        virtual\n        override\n        returns (string memory)\n    {\n        require(\n            _exists(tokenId),\n            \"ERC721Metadata: URI query for nonexistent token\"\n        );\n\n        string memory currentBaseURI = _baseURI();\n        return\n            bytes(currentBaseURI).length > 0\n                ? string(\n                    abi.encodePacked(\n                        currentBaseURI,\n                        tokenId.toString(),\n                        baseExtension\n                    )\n                )\n                : \"\";\n    }\n\n    //only owner\n    function setCost(uint256 _newCost) public onlyOwner {\n        cost = _newCost;\n    }\n\n    function setPresaleCost(uint256 _newCost) public onlyOwner {\n        presaleCost = _newCost;\n    }\n\n    function setmaxMintAmount(uint256 _newmaxMintAmount) public onlyOwner {\n        maxMintAmount = _newmaxMintAmount;\n    }\n\n    function setBaseURI(string memory _newBaseURI) public onlyOwner {\n        baseURI = _newBaseURI;\n    }\n\n    function setBaseExtension(string memory _newBaseExtension)\n        public\n        onlyOwner\n    {\n        baseExtension = _newBaseExtension;\n    }\n\n    function pause(bool _state) public onlyOwner {\n        paused = _state;\n    }\n\n    function whitelistUser(address _user) public onlyOwner {\n        whitelisted[_user] = true;\n    }\n\n    function removeWhitelistUser(address _user) public onlyOwner {\n        whitelisted[_user] = false;\n    }\n\n    function addPresaleUser(address _user) public onlyOwner {\n        presaleWallets[_user] = true;\n    }\n\n    function add100PresaleUsers(address[100] memory _users) public onlyOwner {\n        for (uint256 i = 0; i < 2; i++) {\n            presaleWallets[_users[i]] = true;\n        }\n    }\n\n    function removePresaleUser(address _user) public onlyOwner {\n        presaleWallets[_user] = false;\n    }\n\n    function withdraw() public payable onlyOwner {\n        (bool success, ) = payable(msg.sender).call{\n            value: address(this).balance\n        }(\"\");\n        require(success);\n    }\n}\n",
  "sourcePath": "/Users/ramyalsharif/Documents/GitHub/flaskProject2/packages/contract/contracts/TheRealPutinNFT.sol",
  "compiler": {
    "name": "solc",
    "version": "0.8.12+commit.f00d7308.Emscripten.clang"
  },
  "schemaVersion": "3.3.4",
  "updatedAt": "2022-03-26T04:37:27.776Z",
  "networkType": "ethereum",
  "devdoc": {
    "kind": "dev",
    "methods": {
      "approve(address,uint256)": {
        "details": "See {IERC721-approve}."
      },
      "balanceOf(address)": {
        "details": "See {IERC721-balanceOf}."
      },
      "getApproved(uint256)": {
        "details": "See {IERC721-getApproved}."
      },
      "isApprovedForAll(address,address)": {
        "details": "See {IERC721-isApprovedForAll}."
      },
      "name()": {
        "details": "See {IERC721Metadata-name}."
      },
      "owner()": {
        "details": "Returns the address of the current owner."
      },
      "ownerOf(uint256)": {
        "details": "See {IERC721-ownerOf}."
      },
      "renounceOwnership()": {
        "details": "Leaves the contract without owner. It will not be possible to call `onlyOwner` functions anymore. Can only be called by the current owner. NOTE: Renouncing ownership will leave the contract without an owner, thereby removing any functionality that is only available to the owner."
      },
      "safeTransferFrom(address,address,uint256)": {
        "details": "See {IERC721-safeTransferFrom}."
      },
      "safeTransferFrom(address,address,uint256,bytes)": {
        "details": "See {IERC721-safeTransferFrom}."
      },
      "setApprovalForAll(address,bool)": {
        "details": "See {IERC721-setApprovalForAll}."
      },
      "supportsInterface(bytes4)": {
        "details": "See {IERC165-supportsInterface}."
      },
      "symbol()": {
        "details": "See {IERC721Metadata-symbol}."
      },
      "tokenByIndex(uint256)": {
        "details": "See {IERC721Enumerable-tokenByIndex}."
      },
      "tokenOfOwnerByIndex(address,uint256)": {
        "details": "See {IERC721Enumerable-tokenOfOwnerByIndex}."
      },
      "tokenURI(uint256)": {
        "details": "See {IERC721Metadata-tokenURI}."
      },
      "totalSupply()": {
        "details": "See {IERC721Enumerable-totalSupply}."
      },
      "transferFrom(address,address,uint256)": {
        "details": "See {IERC721-transferFrom}."
      },
      "transferOwnership(address)": {
        "details": "Transfers ownership of the contract to a new account (`newOwner`). Can only be called by the current owner."
      }
    },
    "version": 1
  },
  "userdoc": {
    "kind": "user",
    "methods": {},
    "version": 1
  }
}